:100000006F10C06B1300000013000000130000000D
:100010001300000013000000130000001300000094
:100020001300000013000000130000001300000084
:08003000130000007300100032
:100038000000000000000000A8020000AC02000060
:100048000000000002160000000000000000000090
:100058000416000006160000000000000000000062
:100068000816000000000000AE02000000000000BA
:100078000C1600000E1600001016000012160000E4
:100088001416000016160000181600001A160000B4
:100098001C1600001E160000201600002216000084
:1000A8002416000026160000281600002A16000054
:1000B8002C1600002E160000301600003216000024
:1000C8003416000036160000381600003A160000F4
:1000D8003C1600003E1600004016000042160000C4
:1000E8004416000046160000481600004A16000094
:1000F8004C1600004E160000501600005216000064
:100108005416000056160000581600005A16000033
:100118005C1600005E160000601600006216000003
:100128006416000066160000681600006A160000D3
:100138006C1600006E1600007016000072160000A3
:100148007416000076160000781600007A16000073
:100158007C1600007E160000801600008216000043
:100168008416000086160000881600008A16000013
:100178008C1600008E16000090160000F60A00008B
:100188009416000078040000981600009A160000E3
:100198009C1600009E160000A0160000A216000083
:1001A800A4160000A6160000A8160000AA16000053
:1001B800AC160000AE160000B0160000B216000023
:1001C800B4160000B6160000B8160000BA160000F3
:1001D8000000000000000000000000000000000017
:1001E8000000000000000000000000000000000007
:0801F8000000000000000000FF
:100200003D432A876373C3029377F700BDEFADE5E3
:10021000937606FF3D8ABA960CC34CC30CC74CC7F5
:100220004107E36BD7FE11E28280B306C3408A0622
:100230009702000096966780A6002307B700A306E2
:10024000B7002306B700A305B7002305B700A30432
:10025000B7002304B700A303B7002303B700A3022A
:10026000B7002302B700A301B7002301B700A30022
:10027000B7002300B700828093F5F50F93968500B1
:10028000D58D93960501D58D61B79396270097027A
:10029000000096968682E78086FA9680C1171D8FA9
:1002A0003E96E374C3F8A5B77300203001A015682B
:1002B000028801A04111014506C6EF103001054535
:1002C000EF10207F0545EF1010020545EF10900557
:1002D0000545EF10F002B240056585451305058020
:1002E00041016F106077B737024037071F009387CF
:1002F00007407D0798CB23AA070023AC070013070C
:100300000004239CE708239EE7082390E70A239232
:10031000E70A2394E70A130700202396E70A2398A5
:10032000E70A239AE70A239CE70A239EE70A239019
:10033000E70C2392E70C2394E70C2396E70C239811
:10034000E70C239AE70C1387019DD8CF13870195FB
:1003500098D313870199F8CF1387018DD8D31387CA
:100360000191B8D3370700201307870E98D713875A
:100370000189F8D3239C070C0947238DE70CA38D33
:10038000070C239E070C238FE70CA38F070C2390E9
:10039000070E2381E70EA381070E2392070E238306
:1003A000E70EA383070E2394070E2385E70EA3858C
:1003B000070E828039C5411106C622C43734024077
:1003C000A30004404147A300E44023000440254724
:1003D0002300E44023010440130770022301E4409A
:1003E0007D572328E44001372945EF10B0088347A3
:1003F000044093E707012300F440B2402244410146
:100400008280B737024003C707401377F70E238077
:10041000E74003C70740136767002380E7408280F7
:10042000B73702402390A74E03C7274E1377C70F55
:100430002381E74E828041112A8622C4138501C799
:100440001384018D9385018D06C6EF101016EF0001
:10045000F0378947630EF5007D1513351500A300AD
:10046000A404230004042244B240094541014DBFC5
:10047000B240224441018280011122CE3734024031
:1004800026CC4ACA4EC852C6130404400347A400EF
:10049000938711831377F70F2380E70003C70700C3
:1004A000098B630B071A0347B4008347B4003D8BE5
:1004B00091838D8B6318070E09476395E70C370707
:1004C00000200347870999461377F70F6308D7027F
:1004D000930600026304D7029546631CD70803C73E
:1004E000B182A30104001377F70FA301E400231CDA
:1004F000040C230DF40CA30D040CA9A89387E1822E
:1005000083D707001307F0039384E18213040004E8
:100510006366F70003D404004204418003A9C18448
:100520002286CA851385019DEF10300883D7040009
:10053000229923A62185818FC207C1832390F400CD
:10054000B7370240239C874C03C7A74D134787004A
:10055000238DE74CB737024009472385E74093874F
:1005600007407244E2445249C249324A056173006D
:100570002030231C040C230DF40CA30D040C23A623
:100580000184C9BFE1FB231C040C8347A40D93F72E
:10059000F70F230DF40C8347B40D93F7F70FA30D5A
:1005A000F40C4DBF8546631DD70489466395D70279
:1005B000231E040C8347E40D93C78700230FF40C1C
:1005C000238501828347E40D93F7C70F93E7270044
:1005D000230FF40C41B7BDFF8347B40093F7070422
:1005E000B5DB8356C4002384D1842384E18283470E
:1005F000F40D93F7C70F93E72700A30FF40C99BFEF
:100600000946E319C7F46393E7028357040E83474F
:10061000240E93C787002301F40E8347240E93F71B
:10062000C70F93E727002301F40E2DB785F7834703
:10063000B40093F7070499DF8347340E93C787000C
:10064000A301F40E0355C4001375F50F2388A1A070
:10065000A384D182CD33FDBD03C707001377070202
:10066000630A07309387019D83D667001387E18271
:100670002310D70083C4019D03C71700B7060020CD
:10068000938786092380E70093F7040693868609FB
:100690001384E1821387019DC5C793F7040485C7BE
:1006A00083C70600FD572380F600B7370240239C1E
:1006B000074C0D47238DE74CA38DE74CB73702401D
:1006C0001307000259BD83570400C207C18399C3B1
:1006D00023100400835704001307F00313090004D8
:1006E0006367F7000359040042091359090183A9FC
:1006F000C1844A861385019DCE854E99EF10E06A2C
:1007000023A62185E204E184814763D304020357D1
:1007100004009307000463E6E70083570400C20760
:10072000C183035704001D8F420741832310E40057
:1007300037370240231CF74CA147230DF74CBDBFB0
:1007400083C706002D4693F7F70FE36DF6F40D66A9
:100750008A0713064608B2979C43828703572700EF
:10076000194693578700FD17C207C183E36CF6F261
:100770000D668A071306460BB2979C438287B7071C
:1007800000209387070023A6F18483C7070003573F
:100790000400E3F1E7F42310F4002DBF8D67938785
:1007A000070D23A6F18493070002D5B79377F70FBF
:1007B00005476386E70291CF09476389E7020D4742
:1007C000E392E7EE8D679387871223A6F184D947DA
:1007D0007DBF9387C18123A6F18491474DBF8D676B
:1007E0009387070F23A6F184B94755B78D67938781
:1007F000071023A6F1849307600251BF8D6793878A
:10080000071423A6F184A94759B7B707002083C767
:1008100097090547E308F7E8814795BF0347270095
:10082000A385E182C5B583C7C1822388F19C0357A4
:1008300004008547E3F8E7EC2310F400E1B5034733
:1008400027002386E1820547A386E18265BD13F672
:10085000F4018947E318F6E403474700B73702403D
:100860006309C702938707406368E6000546E31BF8
:10087000C7E2A38F070C79B593051008630EB70084
:1008800093052008E310B7E22390070E2381C70EDB
:1008900095BD2381074EBDB5239E070C238FC70C42
:1008A00095B513F6F4018947E31EF6DE835727005A
:1008B000E39A07DE03474700B7370240630FC702DA
:1008C00093870740636CE6000546E31DC7DC03C75A
:1008D000F70D13673700A38FE70C2DB5130610082B
:1008E0006304C70213062008E31EC7DA03C7270EF6
:1008F000136737002381E70E31B503C7374E1367FF
:100900003700A381E74EFDBB03C7E70D1367370030
:10091000238FE70CC5BB2388019C11BF03574700F9
:10092000B73702402398019C93061008938707402D
:10093000631FD70083C7E70D8D8B0D476395E700D5
:1009400085472388F19C035704008947E5B5854610
:100950006315D70083C7F70DC5B793062008631545
:10096000D70083C7270EC9BF8946E31ED7FC83C7BC
:10097000370ED9B703C70700058B15C39384B1821F
:10098000238004008D3283C70400A301040093F781
:10099000F70FA301F40085472305F400D9B683C7F8
:1009A0000700918BE38F07BA9387018303C7070082
:1009B0001377D70F2380E7000547A386E18291478D
:1009C000E1BFB7070050238007003147A386E70047
:1009D00003A701AAA14698CB03A7C1A998CFA389D1
:1009E00007020947A38BE702A38D0702A38FE70243
:1009F000A381E704A383E704A385E704A387E704AF
:100A0000239CD7022389E702238DD7027D572383B6
:100A1000E7001D472381E700A38107001307900229
:100A20002380E700130710F8A380E70082804111BC
:100A3000054506C6EF10000F0145EF1020090545DA
:100A4000EF1020070545EF10000A0545EF10400B99
:100A50000565854513050580EF100000B24085450A
:100A6000056541016F00507F938741AA23A0F1AA39
:100A70004111938781A106C623AEF1A84D3F13050E
:100A80004006EF10201F353FB240B7E700E03707C0
:100A9000080023A4E71041018280B7070050239C7F
:100AA000A70203C7A7031377C70F238DE70282802E
:100AB000411122C483A5C1A92A86138501C706C690
:100AC000EF10A02E212389476303F502238A01A09A
:100AD000054783A7C1A96319E500A380A7042244A1
:100AE000B2400945410155BFA3800704CDBFB240C4
:100AF000224441018280B707005003C76700137783
:100B0000F70F9376270063840648011122CE26CC86
:100B10004ACA4EC852C603C777009306000213772D
:100B20000703630FD73893060003630FD702631BD5
:100B3000071C03C777001377F70363070744894649
:100B40006312D71C03C7770013770704630C071AD7
:100B500003C7B70313474700A38DE70203D58700F8
:100B60001375F50FB13779AA19472389E7021147A1
:100B7000A389E70203A501AA83477500034765001F
:100B8000A207D98F239CF1A883471500238DF1A8D4
:100B90000349050093760906C5CA13770904631C47
:100BA00007141377090211CFFD1793F7F70F2947A1
:100BB0006363F7140547B317F70093F77770638CF7
:100BC000071283D781A9C207C18399C3239C01A8B7
:100BD0009387218303D707009306F00313040004CF
:100BE00063E6E60003D407001374F40F83A9C184FD
:100BF0002286CE85138541AA4E94EF10001B23A6B2
:100C0000818462091359894181476353090203D7DB
:100C100081A99307000463E6E70083D781A993F7CE
:100C2000F70F03D781A91D8F42074183239CE1A8B9
:100C3000C20737070050C1832318F70291472309E1
:100C4000F702A309F7027DA883C7A1A92D4793F74F
:100C5000F70F6362F70A0D678A071307C714BA977D
:100C60009C43828703443500834725000D472204B7
:100C70005D8C93578400638DE70A636CF70005472A
:100C80006382E7020947638CE7081304F00F81478A
:100C90000DA019476386E70013072002E397E7FEDC
:100CA0000144F5B78D679387C71923A6F1840144E2
:100CB000C94703D781A9C207C18363F4E700239C16
:100CC000F1A883D781A91307F003130A0004636610
:100CD000F70003DA81A9137AFA0F83A5C18452863B
:100CE000EF10A00C83A7C1843E9A23A641859307E9
:100CF000F00FE318F4F0B70700501D472389E7020F
:100D0000A389E702B707005009472383E70072442D
:100D1000E2445249C249324A0561730020308D676E
:100D20009387C71723A6F18401449307000251B7A4
:100D30001374C40F33348000330480401374F40FF1
:100D4000B9B783472500239CF1A865BD83C761A17E
:100D50002300F50003D781A98547E3E6E7FE55B5F3
:100D600003472500238BE1A069BD1377F90189476B
:100D7000E313F7F8834745006383E704636EF700E6
:100D80000547E39AE7F6370700508347770393F761
:100D9000870FA30BF702B5B513071008638AE702A4
:100DA00013072008E399E7F4370700508347A703A8
:100DB00093F7870F93E72700230DF70299B53707BD
:100DC00000508347B70393F7870FA30DF70215BDB4
:100DD000370700508347670393F7870F93E7270090
:100DE000230BF70239BD03C741AA89467D8BE31463
:100DF000D7F0938741AA83D62700E39E06EE83C7E8
:100E000047006381E70213072008E396E7EE370700
:100E100000508347A70393F7C70F230DF70293E70B
:100E2000370059BF370700508347B70393F7C70F01
:100E3000A30DF70293E7370049BF2300050019BF50
:100E4000238201AA9387218383D607000547E37A8B
:100E5000D7DA2390E70075B3138741AA03574700F9
:100E6000239201AA930610086313D7023707005094
:100E7000034767030D8B8D466315D7000547238213
:100E8000E1AA9387218383D607000947C9B785461E
:100E90006317D7003707005003477703E1BF930676
:100EA00020086317D700370700500347A703D9B7B7
:100EB0008946E318D7FC370700500347B7035DBFE7
:100EC00083C6770093F6F6036385E60213072002D4
:100ED000E39AE6E203C7A70313474700238DE7021F
:100EE00003C7A7031377C70F13672700238DE702F4
:100EF00011BD03C7A1A995461377F70F6302D70663
:100F000099466310D70883D781A91307F003130408
:100F100000046366F70003D481A91374F40F03A5DA
:100F200001AA83A5C1842286EF00306883D781A9F6
:100F3000131704014183998FC207C183239CF1A831
:100F400083A7C1843E9423A68184B70700502398C9
:100F5000E70203C72703134747002389E7025DB36E
:100F600003C7370083D681A913770708558F1377F6
:100F7000F70FA381E70009472389E702A389070246
:100F800051B323980702C5BF83D78700A5BB9376CB
:100F9000170085C6A3810700A3890702A38D070256
:100FA00009472389E702238DE70203C76700136718
:100FB00017002383E7007300203093764700F5DAAB
:100FC00003C757001147F5B76F00407D0111138724
:100FD00001C706CE22CC26CA4AC84EC652C4034414
:100FE000170003C701C7930610086304D70A63EF0D
:100FF000E60093060008630CD7020545F240624400
:10100000D2444249B249224A05618280938401C791
:10101000930720086306F70A93073008E31FF7FCDD
:10102000A38C01820547238CE1820945C1BF03A738
:101030004183938701C7814693844183138641AEE0
:1010400093F5F60F850763EA85043A9480C0930709
:10105000F00F0145E3F487FAEF00806F9389418038
:1010600003A5090013844180EF00607003A5090007
:10107000938541AE138941AE813F98408147130764
:1010800007F098C063E4E7021C40938707101CC078
:1010900019A0EF00E06B014595B703C53700B30514
:1010A000D700B2952380A500850659BFB3862701D6
:1010B00003C60610850793F7F70F2380C600D9B73C
:1010C000138791838347070085EF85462300D70068
:1010D00003A6418393060010918E13894183938563
:1010E00041AE7D5563ECD7029389418003A5090089
:1010F000BD2D03A50900938541AEF93523200900D4
:1011000003A68180A68781461387818093F5F60F19
:1011100063EF85000145329400C3CDB53387C70026
:101120002E9785072300A70093F7F70F65BFB30538
:10113000D60003C5470083C5050085068507E3077C
:10114000B5FC0545C9BF01118545114506CEEF0027
:1011500090128547371501402312F1004C00930788
:101160008004130505803EC6612DF2400561828032
:1011700041114AC03719014022C426C206C6A944FB
:10118000D93701441309098085454A85EF0060730A
:1011900001E505041374F40FFD14154593F4F40FE1
:1011A000EF00B030F5F013357400B24022449244A1
:1011B000024941018280797126D28545AA84214560
:1011C00006D622D4EF00300B854537050400EF002A
:1011D000700C930700402312F100371401408D4733
:1011E0003EC44C00E147130504C03EC6112D85677F
:1011F000938707802312F1004C009147130504C028
:101200003EC637540040ED2BB7070C000C08130501
:10121000048026C83ECC02CA231E0100EF00F01154
:10122000130504808545EF00D01EB250225492541D
:1012300045618280411122C43754004026C24AC011
:1012400006C6AA8413090480930500044A85EF00AA
:10125000501F7DD9130504802244B2400249A6855F
:10126000924441016F00B01C411122C43754004028
:1012700026C206C693040480930500022685EF006B
:10128000501C7DD913050480EF00101BB24022448E
:1012900092441375F50F41018280411106C622C4A4
:1012A00026C24AC0D13793077005631FF5086D3F0A
:1012B0009307B00A631AF508453F138901C72A84CA
:1012C0002388A1C655372A94A300A900713F13743F
:1012D000F40F2301A90022951374F50F713783C70A
:1012E00001C7A301A90013070008229593F7D70FA0
:1012F0001374F50F938401C76393E702014921A892
:10130000A537B38724012A9405092382A700137403
:10131000F40F1379F90F83C71400E363F9FEA937BB
:1013200063148502653189472A84630FF5000145FE
:101330001137854705456303F40001452244B24057
:10134000924402494101FDB5B2402244924402490F
:10135000410182804111014506C622C4EFF08F850C
:1013600037E400E0B70720002324F410B737024029
:10137000A38007402380074023810740FD5623A810
:10138000D74003C70740130520031377F70E2380C8
:10139000E74003C70740136767002380E7402380C7
:1013A0000740EF009010373500001305051BEF00D4
:1013B000D03C2945EF00700F91672320F4102320C3
:1013C000F420B240224441018280411106C622C469
:1013D00026C2B52AEF00B007716513050520EF009E
:1013E000301083A5C180373500001305C51BEF0001
:1013F0003027912EAA85373500001305C51CEF0054
:101400003026BD3319E1B93701A039651305051040
:101410005D33EFE03FEA0545EFE0DFF9B7E700E0D5
:101420003707200023A4E71037540040EFF0CFE344
:1014300013040480930500022285EF00900011C17F
:10144000A93D692183C78183F5D72945EF00F005C0
:10145000113701A0B71702409843B706FFF84111B2
:101460001367170098C3D84337060200758FD8C397
:101470009843B706F7FEFD16758F98C39843B706D5
:10148000FCFFFD16758F98C3D843B70681FFFD1684
:10149000758FD8C39843B70600ECFD16758F98C3B7
:1014A0003707FF0098C723A6070202C402C6984365
:1014B000C166558F98C3B716024005679C42F18FED
:1014C0003EC6A24785073EC4B24781E7A247E397DD
:1014D000E7FEB71702409C431397E70063570706E0
:1014E00085473EC632478547631FF704B71702405A
:1014F000D843B706C1FFFD16D8C3D843D8C3D843D5
:1015000013670740D8C3D843758FD8C3D843B706ED
:101510002900558FD8C39843B7060001558F98C34B
:10152000984393166700E3DD06FED843B7160240E2
:10153000719BD8C3D84313672700D8C32147DC4227
:10154000B18BE39EE7FE4101828002C661BF371680
:1015500002405C429146B18B1387C1806385D700FE
:10156000A1466389D702B7177A00938707201CC367
:10157000B7170240DC43918393F6F700B7070020CA
:1015800093874701B69783C607001C43B3D7D7009C
:101590001CC3828054425042C167C982BD8A7D8E7D
:1015A0009387260085CABD466389D702C1466389F1
:1015B000D702C54581466393B700C1470DE637168C
:1015C0003D0013060690B387C7021CC3D5D21C4347
:1015D000858371BF8146C947D5B78546B547F9BFF1
:1015E0008146BD47E1BF3716024050429315E600E1
:1015F000E3C705FC37167A0013060620E9B701A0F9
:1016000001A001A001A001A001A001A001A001A0D2
:1016100001A001A001A001A001A001A001A001A0C2
:1016200001A001A001A001A001A001A001A001A0B2
:1016300001A001A001A001A001A001A001A001A0A2
:1016400001A001A001A001A001A001A001A001A092
:1016500001A001A001A001A001A001A001A001A082
:1016600001A001A001A001A001A001A001A001A072
:1016700001A001A001A001A001A001A001A001A062
:1016800001A001A001A001A001A001A001A001A052
:1016900001A001A001A001A001A001A001A001A042
:1016A00001A001A001A001A001A001A001A001A032
:1016B00001A001A001A001A001A001A097F1FF1FBE
:1016C0009381C11D177100201301C19317250000DC
:1016D0001305C5BA97F5FF1F9385C59213868182BE
:1016E00063FAC5008322050023A05500110591056A
:1016F000E3EAC5FE13858182938541CB6377B5000C
:10170000232005001105E36DB5FEFD42739002BC78
:10171000AD4273904280B76200009382820873A04A
:10172000023097F2FFFF9382629193E2320073904E
:101730005230EFF03FD297020000938242C973907B
:10174000123473002030B7F7FF1F03A54770828063
:10175000B7066745B7270240938636123797EFCD15
:10176000D4C31307B79AD8C3D4D3D8D38280B727AA
:101770000240984BB7060200137505F0558F98CBC1
:10178000C8CB984B1367070498CBD847058B75FFD8
:10179000984B8176FD16758F98CB82803727024053
:1017A0001C4BC166137505F0D58F1CCB5C47858B30
:1017B000F5FF372702405C47898BF5FF372702404A
:1017C00013060010B386F50003A80600B306F50063
:1017D00023A006015447898AF5FE9107E394C7FECA
:1017E0001C4BB7062000D58F1CCBB7270240D8472B
:1017F000058B75FF984BC176FD16758F98CB82804F
:101800009C4513F7070113F8F70001C7D841336867
:10181000E80083D5050013F7F50F39C31841814659
:10182000854E3D4F930F800293028004214E3396E4
:10183000DE00B3F8C5006311160393982600331336
:101840001F011343F3FF3377E300B318180133E7A5
:10185000E800639FF70550C98506E39AC6FD18C1E5
:101860001307F00F6375B70454412146854E3D4F71
:10187000930F800293028004414EB398CE0033F759
:1018800015016392E8021317260001173313EF00C6
:101890001343F3FFB376D3003317E800D98E639D6B
:1018A000F701232A15010506E319C6FD54C18280FC
:1018B000E39457FA10C94DB7E39757FE2328150153
:1018C000DDB708456D8D3335A0008280AD673737B1
:1018D00000409387A7AA1CC38280371702405C434D
:1018E0009146B18B6385D700A1466386D706B717AB
:1018F0007A00938707201CC1371602405C423707E5
:101900000020130747029183BD8BBA9783C6070057
:101910001C41B3D7D7005CC15442A1829D8ABA96BC
:1019200083C60600B3D6D70014C55442AD829D8A43
:10193000369703470700B3D7E7005CC558423983A1
:101940009376370013870181369703470700B3D793
:10195000E7021CC982805C435843C166C983758F06
:10196000B7F6FF1F83A6C670BD8B890713961601B5
:1019700063480600C54601466392D702C94739A8A5
:101980008946638FD702BD46638ED702C146638EF8
:10199000D702C54601466393D700C1471DEF3747BD
:1019A000024003270780418B05C737177A001307CA
:1019B0000720B307F7021CC121D21C41858325BF34
:1019C00001466DBF0546B547D1BF0146BD47F9B7D2
:1019D00037173D0013070790E9BFB7150240D855E8
:1019E0009316F700D85563DF060411833D8B9306E9
:1019F000170037177A00130707203357D70218C18B
:101A0000D455A182BD8A8DE295463307D70205835E
:101A100018C137170240585714413D8B050733D77B
:101A2000E60218C1184171B785456394B600E546D2
:101A3000E9BFBD456396B600D1463387E602C9BF0C
:101A40008906E5BF3D8B9306170037177A00130709
:101A500007203357D702F1B799C5371702405C4BBF
:101A60005D8D48CB8280B7170240D84B1345F5FFF8
:101A7000798DC8CB828099C5371702401C4F5D8D88
:101A800008CF8280B7170240984F1345F5FF798D34
:101A900088CF828099C5371702405C4F5D8D48CF53
:101AA0008280B7170240D84F1345F5FF798DC8CF14
:101AB0008280B7170240D857B70600F9FD16758F18
:101AC000D8D7D8576205598DC8D78280B71702403A
:101AD000D857B70600F8FD16758FD8D7D8576E05BA
:101AE000598DC8D78280B7170240D857B70600D0A3
:101AF000FD16758FD8D7D8577205598DC8D78280F3
:101B000009C9371702405C57B7060040D58F5CD72C
:101B10008280B7160240DC56370700C07D17F98F68
:101B2000DCD68280371702405C577E0586078583A6
:101B30005CD75C575D8D48D7828083560501F57769
:101B4000FD17F58F83D66500397122DC06DED58F4F
:101B500003D7C5002318F5008356C500FD7793878A
:101B6000379FF58F83D645002A842EC6D58F83D61E
:101B70008500D58F83D6A500D58F2316F500835712
:101B80004501C207C18393F7F7CFD98F231AF50018
:101B90006808A133B747014093870780B245631EA9
:101BA000F404A2578356C4006547B387E702C20610
:101BB000C186984163D5060406070356C400420651
:101BC000B3D7E702130740064186B3D6E702B3F75F
:101BD000E7029206635706028E0793872703B3D75F
:101BE000E70213F77700B367D700C207C183231456
:101BF000F400F250625421618280925765B70A075F
:101C00006DBF920793872703B3D7E702BD8BD58FAC
:101C1000E9BF81C98357C5000967D98F2316F5002D
:101C200082800357C500F977FD17F98FC5BF93F57B
:101C3000F51F2312B5008280035545001375F51F6B
:101C40008280035505006D8D3335A000828083A707
:101C5000C18037177A0013070720B3D7E70293F73D
:101C6000F70F238EF1821307803EB387E702239D8F
:101C7000F1828280B7F700E0D8438146799BD8C3D0
:101C800003C7C1833306A70290CBD4CB9843136715
:101C9000070198C398431367170298C3D843058B6D
:101CA00075DF9843799B98C38280B7F700E0D843EB
:101CB0008146799BD8C303D7A1833306A70290CB73
:101CC000D4CB98431367070198C39843136717024F
:101CD00098C3D843058B75DF9843799B98C382805E
:101CE000797122D42A8411658545110506D66133A0
:101CF000930700202312F100371501408D473EC4A1
:101D00004C00E147130505803EC6EFF07FAF22C8C7
:101D100037440140B70708000C08130504803ECC87
:101D200002CA231E0100113D130504808545D535E7
:101D3000B250225445618280011126CAB744014045
:101D400022CC4AC84EC606CEAE893289014493845D
:101D50000480634A2401F24062444A85D2444249E5
:101D6000B24905618280930500042685D93D65DD71
:101D7000B38789008385070026850504C205C181D4
:101D80007D35C1BF138741811C43938641CB3E956E
:101D9000636BD500B78600209386068063E5A600B6
:101DA00008C33E858280FD57EDBFB3C7A5008D8B6C
:101DB0003307C50081E78D4763EEC700AA876370CC
:101DC000E50A83C6050085078505A38FD7FEE3EAEC
:101DD000E7FE828093763500AA8791CA83C6050004
:101DE00085078505A38FD7FE93F63700FDB7937659
:101DF000C7FF138606FE63F0C70683A3050083A210
:101E0000450083AF850003AFC50083AE050103AE77
:101E1000450103A3850183A8C5019385450223A03D
:101E2000770003A8C5FF23A2570023A4F70123A628
:101E3000E70123A8D70123AAC70123AC670023AE7B
:101E400017019387470223AE07FF75B790419107AB
:101E5000910523AEC7FEE3EBD7FEE3E4E7F682800D
:101E600039713EDA2ED232D436D63AD842DC46DE4A
:101E70009387818122CC804326CA06CEAA8409C4D6
:101E80001C4C99E3228515230C4454102686228588
:101E900036C6EF007016F2406244D244216182805F
:101EA000011126CA4AC806CE22CC4EC652C4AA8404
:101EB0002E8901C51C4D91E3CD299C4C804499E3AA
:101EC0002685E5219717000093878733631CF4026A
:101ED000C0408357C400A18BB1C71C48A1C7FD599E
:101EE000294A1C4483450900FD17B1E91CC463DE7F
:101EF00007062286A94526857120FD576308F5024D
:101F0000294535A097170000938787316314F400A3
:101F10008044C1B7971700009387872CE31BF4FA1E
:101F2000C04445BFA2852685312A55D97D55F2404A
:101F30006244D2444249B249224A056182801CC4AB
:101F4000050963D70700184C63CBE7006389450197
:101F50001C401387170018C02380B70059B722868A
:101F600026850D20E31F35F7D1B71C4013871700D6
:101F700018C029472380E70061B793878181AA852C
:101F8000884339BF011122CC26CA4AC806CE4EC6A4
:101F9000AA842E89328401C51C4D91E339219717FB
:101FA00000009387E7256319F406C0401C4C1CC44D
:101FB0008357C400A18BC9C31C48BDCF1C4808402F
:101FC0009379F90F1379F90F1D8D5C486346F5007D
:101FD000A2852685652C2DE51C440505FD171CC42E
:101FE0001C401387170018C0238037015C486389A1
:101FF000A7008357C400858B81CBA9476316F900DE
:10200000A285268561240DEDF24062444A85D244C2
:102010004249B249056182809717000093874720A3
:102020006314F400804459B7971700009387471B47
:10203000E31EF4F6C0449DBFA285268521203DDD28
:102040007D59D9B741119387818126C2844322C427
:102050004AC006C62A892E8489C49C4C99E32685E9
:10206000A926971700009387A719631CF402C040A4
:102070000317C40093170701C18393F68700B5EED9
:1020800093F607019DEEA5472320F9001367070487
:102090002316E4007D55B240224492440249410196
:1020A0008280971700009387A7176314F400804479
:1020B000C1B7971700009387A712E31BF4FAC04437
:1020C00045BF918B8DC74C5889C9930744046384DD
:1020D000F5004A85352B232A04028357C4002322A6
:1020E000040093F7B7FD2316F4001C481CC0835767
:1020F000C40093E787002316F4001C4881EF835740
:10210000C4001307002093F707286385E700A28522
:102110004A8585218357C40013F7170005C75C481B
:1021200023240400B307F0401CCC1C480145A5F74C
:102130008317C40013F7070839DF93E70704231652
:10214000F40089BF898B014791E3584818C4F1BF57
:1021500083D7C500011122CC26CA06CE4AC84EC676
:1021600013F78700AA842E8471EFD841634DE000F5
:10217000B841634AE0000145F2406244D24442491A
:10218000B2490561828058547DD703A90400939613
:10219000370123A0040063DD060670488357C4009E
:1021A000918B99C75C401D8E5C5899C33C401D8E35
:1021B0005C540C50814626858297FD570357C40016
:1021C000631DF5009440F54763E8D706B707402044
:1021D0008507B3D7D700858BA5C31C4823220400ED
:1021E0001CC09317370163D80700FD576314F5002F
:1021F0009C4091E368C84C5823A02401ADDD9307AF
:1022000044046384F50026852121232A0402A5B70E
:102210000C500146854626850297FD572A86E31F06
:10222000F5F69C40A5DF75476385E7005947639441
:10223000E70423A0240181B7136707042316E400F1
:102240007D551DBF83A90501E38709F203A9050098
:102250008D8B23A0350133093941014791E3D849DA
:1022600018C4E35A20F11C540C50CA864E862685A9
:1022700082976349A0008357C40093E7070423169D
:10228000F4007DBFAA993309A940E1BF9C49B9CFA9
:10229000011122CC06CE2A8411C51C4D81E72EC621
:1022A0002922B24597170000938787F5639BF500B5
:1022B0004C408397C50095C722856244F240056172
:1022C00041BD971700009387A7F56394F5000C4470
:1022D000CDB7971700009387A7F0E39CF5FC4C441B
:1022E000C9BFF24062440145056182800145828098
:1022F000411122C406C62A842316B5002317C5003F
:10230000232005002322050023240500232205069F
:1023100023280500232A0500232C0500214681459A
:102320001305C505EFD0DFED97170000938787B43D
:102330005CD0971700009387E7B61CD4971700006E
:10234000938727BB5CD4971700009387E7BD00D025
:102350001CD8B24022444101828097050000938539
:1023600025F3A9A2411126C2130680069384F5FF26
:10237000B384C4024AC02E8922C406C6938544078A
:10238000252E2A8401CD2320050023222501310595
:1023900008C4138684068145EFD09FE62285B240AB
:1023A000224492440249410182801C4DADE3411117
:1023B00006C622C497070000938767FA1CD5938747
:1023C00001829C43232405042326050423280504B5
:1023D0006314F50085471CCD2A841D2848C022853A
:1023E000052808C422852D2048C44840014691454F
:1023F000013708440546A545E53D48440946C94519
:10240000C53D85471CCCB240224441018280828078
:1024100041119387018226C284434AC006C69C4C60
:1024200022C42A8999E32685493793848404804409
:10243000DC40FD1763D607009C40B9CF8440C5BF80
:102440000317C40039E7C177850723220406232038
:10245000040023220400232404005CC42328040075
:10246000232A0400232C0400214681451305C405BA
:10247000EFD01FD9232A0402232C040223240404AE
:10248000232604042285B240224492440249410199
:1024900082801304840671BF91454A85E13588C066
:1024A00051FDB1472320F9000144E9BF797122D4DD
:1024B0004AD052CC56CA5AC85EC606D626D24ECE8E
:1024C0002A8AAE8A130485040149054BFD5B09EC99
:1024D000B25022544A8592540259F249624AD24A71
:1024E000424BB24B45618280044483294400FD196C
:1024F00063D409000040E1BF83D7C400637BFB00C5
:102500008397E40063877701A6855285829A3369B1
:10251000A90093848406E1BF1971A6DAAE8483957D
:10252000E500A2DC86DE328463DC050083D7C400CC
:1025300023A0060093F7070885E7930700401DA036
:10254000300836C6EF00D023B246E34105FE72479D
:10255000BD67F98F7977BA9793B717009CC2F1BF1F
:10256000930700041CC0F6506654D6540145096117
:10257000828083D7C500011122CC06CE26CA4AC864
:10258000898B2E8489CF930774041CC01CC885478F
:102590005CC8F2406244D2444249056182807400C2
:1025A0003000AA84953FA2452A892685312201ED73
:1025B0008317C40013F7072069FFF19B93E72700F7
:1025C0002316F400C9B797070000938747D99CD416
:1025D0008357C40008C008C893E707082316F4000F
:1025E000A2475CC8B24791CF8315E4002685EF006F
:1025F000D01B01C98357C400F19B93E71700231632
:10260000F4008357C4003369F9002316240151B73D
:10261000DDC183A7C5FF411122C406C626C21384AB
:10262000C5FF63D307003E94AA84EF00F01E938792
:1026300001849C4381EF2322040023A0818422444F
:10264000B2402685924441016F00301D637EF40044
:1026500014403307D4006396E7009843DC43369771
:1026600018C05CC0D9BFBA87D84319C3E37DE4FE64
:1026700094433386D700631F86001040B29694C3FC
:102680003386D700E31DC7FA10435843B29694C36C
:10269000D8C375B76375C400B1479CC04DB710402F
:1026A000B306C4006316D70014435843B29614C04F
:1026B00058C0C0C369B78280011126CA938435000F
:1026C000F19806CE22CC4AC84EC6A104B14763F3A6
:1026D000F404B14463E2B4042A89EF00F013938751
:1026E000018498433A8439E0938741849C4391E77D
:1026F00081454A85892F23A2A184A6854A85A127E1
:10270000FD5963193507B1472320F9004A85EF00C9
:10271000D01029A0E3D004FCB1471CC10145F24010
:102720006244D2444249B249056182801C40858F8F
:1027300063CF0702AD4663F6F6001CC03E9404C0AA
:1027400031A05C406313870223A0F1844A85EF0027
:10275000D00C1305B4009307440061993307F5408A
:102760005DDF3A94898F1CC05DBF5CC3C5B722870B
:10277000404095BF130435007198E30285FCB30512
:10278000A4404A85C925E31C35FBB5BF1C46FD178F
:102790001CC663DA0700184E63C5E700A9476394B7
:1027A000F5006FF02FFE1C422E851387170018C20C
:1027B0002380B7008280011122CC26CA4AC84EC6A7
:1027C00052C406CE2A89AE893284B304D6007D5A1B
:1027D00063149400014509A8834504004E864A8588
:1027E00075370504E31645FFF2406244D24442497E
:1027F000B249224A05618280357122CD26CB4AC971
:102800004EC706CF52C556C35AC1DEDEE2DCE6DA59
:10281000AA89AE843289368409C51C4D99E3EFF04C
:10282000DFB8971700009387A79D639BF40C83A4E0
:10283000490083D7C400A18BF5C79C48E5C793071F
:102840000002A304F1029307000302D22305F10260
:1028500022C6930B5002971A0000938A6A9E054C79
:10286000294B4A848347040099C36390770FB30CC4
:102870002441638D0C00E6864A86A6854E85253F59
:10288000FD576306F51E9256E69636D2834704003E
:10289000638F071CFD571309140002C802CE3ECAFD
:1028A00002CCA309010482D483450900154656854C
:1028B000B92713041900C24759E913F7070109C7DB
:1028C00013070002A309E10413F7870009C71307E0
:1028D000B002A309E104834609001307A002638044
:1028E000E608F2474A8481462546034704009305DB
:1028F0001400130707FD6379E60AB5CA3ECE85A822
:10290000971700009387C7916395F40083A489000B
:102910000DB7971700009387A78CE39CF4F083A46E
:10292000C90001BFA6854E85EFF0CFF109D97D55CD
:10293000FA406A44DA444A49BA492A4A9A4A0A4B4E
:10294000F65B665CD65C0D618280050421BF3305B1
:1029500055413315AC00C98F3EC82289B1B7324703
:1029600093064700184336C6634907023ACE034729
:1029700004009307E002631FF70403471400930762
:10298000A002631BF702B2470904138747009C4368
:102990003AC663C107023ECA35A83307E04093E751
:1029A00027003ACE3EC8E1B7B387670385462E8439
:1029B000BA9725BFFD57C5B7050402CA81468147AE
:1029C00025460347040093051400130707FD6376AB
:1029D000E606F1F2834504000D46171500001305C5
:1029E000A586312D11CD971700009387E7851D8DA2
:1029F00093070004B397A700424505045D8D2AC8DC
:102A00008345040019461715000013052584130992
:102A100014002304B102E5233DC197D7FFFF93873C
:102A2000675E95E74247B2471377071009CF9107D2
:102A30003EC69257D2973ED22DB5B38767038546DF
:102A40002E84BA97BDBF9D07E19BA107D5B778003B
:102A500097060000938666D626860C084E8597005A
:102A60000000E7000000FD572A8AE314F5FC83D735
:102A7000C40093F70704E39C07EA125555BD78009C
:102A800097060000938666D326860C084E85012A99
:102A9000D9BF797156CA9C49BA8A984522D426D2A0
:102AA0004ECE52CC06D64AD05AC85EC6AA892E84CB
:102AB000B284368A63D3E700BA879CC003473404E4
:102AC00019C385079CC01C4093F7070281C79C402F
:102AD00089079CC00329040013796900631A09005F
:102AE000130B9401FD5B5C449840998F634CF9048F
:102AF0001C408346340493F70702B336D000A5EB9D
:102B000013063404D2854E85829AFD576303F5047B
:102B10001C4011469840998B544481446397C700E8
:102B2000B384E64063D3040081441C4418486354D2
:102B3000F700998FBE94014969047D5B6398240571
:102B4000014509A885465A86D2854E85829A631E1C
:102B500075017D55B250225492540259F249624A8D
:102B6000D24A424BB24B456182800509ADBF330763
:102B7000D40013060003A301C7040347540493873A
:102B80001600A2978906A381E7049DBF8546228689
:102B9000D2854E85829AE30E65FB050945B77971AA
:102BA00022D426D24AD04ECE06D652CC56CA5AC8C5
:102BB000B68983C68501930790063289AA842E843C
:102BC00013863504638DF60263E2D706930780050A
:102BD0006387F61863EDD7006380062293073004FD
:102BE000638EF60A930A24042301D404C9A0930730
:102BF00030066385F60A93074006E395F6FE1C400F
:102C0000084393F6070893054500C5C61C410CC34D
:102C100063D807001307D002B307F040A301E40410
:102C2000970600009386066329476DA8930700075F
:102C30006383F61663E5D7029307E006638AF61806
:102C40009307F006E390F6FA0C401C4313F80508CE
:102C5000138547006307080608C39C438DA89307A4
:102C60005007E383F6FE93078007638AF612930703
:102C70003007E399F6F61C43D0418145938647001F
:102C800014C383AA070056859D2E01C533055541FF
:102C900048C05C401CC8A301040471A81C43930AEB
:102CA0002404938647009C4314C32301F4048547FE
:102CB000D5B793F607041C410CC3B9DAC207C18724
:102CC00081BF93F5050408C3C9D983D7070013074B
:102CD000F0066387E60E970600009386A6572947FD
:102CE000A30104044C400CC463C5050008406D9961
:102CF00008C099E3B28A91CDB28AB3F5E702FD1A12
:102D0000B69583C505002380BA00B3D5E70263FFFB
:102D1000E70AA147631EF7001C40858B91CB584002
:102D20001C4863C7E70093070003A38FFAFEFD1A50
:102D30003306564110C84E87CA867000A285268584
:102D4000893B7D5A631E450B7D55B25022549254E7
:102D50000259F249624AD24A424B45618280A382BB
:102D6000D504970600009386E64E0C40084313F8FE
:102D700005081C411105630D080208C313F715006F
:102D800001C793E505020CC04147B9FB0C4093F520
:102D9000F5FD0CC0B1B79C4193E707029CC19307B6
:102DA0008007A302F404970600009386E64B75BFE4
:102DB00013F8050408C3E30308FCC207C1837DBF01
:102DC0009706000093860649214719BFAE8735B79D
:102DD00094411C43CC4913F8060813854700630649
:102DE000080008C39C438CC301A808C393F60604DB
:102DF0009C43F5DA2390B70023280400B28A25BF4C
:102E000014485686CA8526858299E30F45F31C40EF
:102E1000898B8DE7B2474844E359F5F23E8535B7D3
:102E200085465686CA8526858299E30F65F1050A8F
:102E30005C443247998FE345FAFEE9BF014A930AA1
:102E400094017D5BF5B7411122C42A842E8523A805
:102E500001CA06C6EFE01FF3FD576317F50093871D
:102E600001CB9C4391C31CC0B240224441018280EB
:102E7000411122C42E848395E50006C6452263498C
:102E800005007C48AA977CC8B24022444101828058
:102E90008357C4007D777D17F98F2316F400EDB7B3
:102EA00083D7C500011122CC26CA4AC84EC606CE19
:102EB00093F70710AA842E843289B68991C7839527
:102EC000E5008946014631228357C4007D777D178E
:102ED000F98F2316F4008315E4006244F240CE8695
:102EE0004A86B24942492685D24405613DA841112E
:102EF00022C42E848395E50006C6E128FD570357BA
:102F0000C400631BF500FD77FD17F98F2316F4004D
:102F1000B2402244410182808567D98F2316F40094
:102F200068C8FDB78395E50005A8411122C42A842D
:102F30002E85B285368623A801CA06C6EFE0DFDFFC
:102F4000FD576317F500938701CB9C4391C31CC0C9
:102F5000B240224441018280411122C42A842E853C
:102F600023A801CA06C6CD20FD576317F500938735
:102F700001CB9C4391C31CC0B240224441018280DA
:102F8000411122C42A842E85B28523A801CA06C60F
:102F9000D120FD576317F500938701CB9C4391C364
:102FA0001CC0B240224441018280411122C42A84C3
:102FB0002E8523A801CA06C66520FD576317F500B4
:102FC000938701CB9C4391C31CC0B2402244410172
:102FD0008280411122C42A842E85B285368623A898
:102FE00001CA06C66120FD576317F500938701CB20
:102FF0009C4391C31CC0B24022444101828093F59E
:10300000F50F2A966314C5000145828083470500A9
:10301000E38DB7FE0505FDB782808280411122C491
:103020002A842E85B285368623A801CA06C6A92021
:10303000FD576317F500938701CB9C4391C31CC0D8
:10304000B2402244410182809307800523A8F1CA3F
:103050007D5582809307800523A8F1CA7D55828023
:103060009307800523A8F1CA014582809307800554
:1030700023A8F1CA7D5582809307800523A8F1CA51
:103080007D5582801C0900004E080000A406000047
:10309000A2080000A40600001C0800005C07000055
:1030A000A4060000260800003E08000016090000E3
:1030B000160900007E0700009C070000AC07000016
:1030C000A4060000A4060000FC0700000A08000097
:1030D0000902200001010080320904000002FF8083
:1030E000550007058202400000070502024000006B
:1030F0000E037700630068002E0063006E0000007E
:1031000026035700430048002000550053004200AA
:1031100032002E00300020004400450056004900D7
:10312000430045002000000016033000310032004B
:103130003300340035003600370038003900000015
:103140000A060002FF00FF4001000000580E0000C8
:103150006A0D0000F60C0000E60D0000F60C000001
:10316000420D0000640C0000F60C00004C0D000045
:10317000600D00003A0E0000400E00000902200021
:1031800001010080320904000002FF80550007059C
:1031900082024000000705020240000012011001F7
:1031A000FF8055404843E055000100000001000049
:1031B0006A756D70204150500D0000005379737492
:1031C000656D436C6B3A25640D0A000043686970B5
:1031D00049443A253038780D0A000000000000000C
:1031E00000000000000000000000000000000000DF
:1031F00000000000000000000000000000000000CF
:1032000000000000000000000000000000000000BE
:1032100000000000000000000000000000000000AE
:10322000000000000000000000000000000000009E
:10323000000000000000000000000000232D302BE3
:1032400020000000686C4C0065666745464700003A
:1032500030313233343536373839414243444546CC
:10326000000000003031323334353637383961628E
:083270006364656600000000C4
:1032780012011001FF8055404843E055000100004D
:10328800000100000000000000000000010203042B
:1032980006070809000000000102030401020304F4
:1032A8000607080900000000FC3100001C3200007D
:1032B800DC310000000000000000000000000000F9
:1032C80000000000000000000000000000000000F6
:1032D80000000000000000000000000000000000E6
:1032E80000000000000000000000000000000000D6
:1032F80000000000000000000000000000000000C6
:103308000000000000000000FF010000005000085D
:103318000050000800D8B805020406084C05002033
:1033280034000020040309043400002000000000D9
:00000001FF
